{
  "contractName": "HMSTests",
  "abi": [
    {
      "inputs": [],
      "payable": false,
      "stateMutability": "nonpayable",
      "type": "constructor"
    },
    {
      "anonymous": false,
      "inputs": [
        {
          "indexed": false,
          "internalType": "uint256",
          "name": "tst_bloodG_id",
          "type": "uint256"
        },
        {
          "indexed": false,
          "internalType": "uint256",
          "name": "prescription_id",
          "type": "uint256"
        },
        {
          "indexed": false,
          "internalType": "string",
          "name": "bloodGroup",
          "type": "string"
        },
        {
          "indexed": false,
          "internalType": "string",
          "name": "rhesusD",
          "type": "string"
        },
        {
          "indexed": false,
          "internalType": "uint256",
          "name": "appointment_id",
          "type": "uint256"
        },
        {
          "indexed": false,
          "internalType": "uint256",
          "name": "date",
          "type": "uint256"
        }
      ],
      "name": "BloodGroupingRhCreated",
      "type": "event"
    },
    {
      "anonymous": false,
      "inputs": [
        {
          "indexed": false,
          "internalType": "uint256",
          "name": "id",
          "type": "uint256"
        },
        {
          "indexed": false,
          "internalType": "uint256",
          "name": "appointment_id",
          "type": "uint256"
        },
        {
          "indexed": false,
          "internalType": "string",
          "name": "description",
          "type": "string"
        },
        {
          "indexed": false,
          "internalType": "string",
          "name": "metadatahash",
          "type": "string"
        },
        {
          "indexed": false,
          "internalType": "uint256",
          "name": "date",
          "type": "uint256"
        }
      ],
      "name": "ImageCentricCreated",
      "type": "event"
    },
    {
      "anonymous": false,
      "inputs": [
        {
          "indexed": false,
          "internalType": "uint256",
          "name": "tst_li_id",
          "type": "uint256"
        },
        {
          "indexed": false,
          "internalType": "uint256",
          "name": "prescription_id",
          "type": "uint256"
        },
        {
          "indexed": false,
          "internalType": "string",
          "name": "cholestrolHDL",
          "type": "string"
        },
        {
          "indexed": false,
          "internalType": "string",
          "name": "cholestrolLDL",
          "type": "string"
        },
        {
          "indexed": false,
          "internalType": "string",
          "name": "triglycerides",
          "type": "string"
        },
        {
          "indexed": false,
          "internalType": "string",
          "name": "totalCholestrolLDLHDLratio",
          "type": "string"
        },
        {
          "indexed": false,
          "internalType": "uint256",
          "name": "appointment_id",
          "type": "uint256"
        },
        {
          "indexed": false,
          "internalType": "uint256",
          "name": "date",
          "type": "uint256"
        }
      ],
      "name": "LipidTestCreated",
      "type": "event"
    },
    {
      "constant": true,
      "inputs": [],
      "name": "CreatedTestBy",
      "outputs": [
        {
          "internalType": "address",
          "name": "",
          "type": "address"
        }
      ],
      "payable": false,
      "stateMutability": "view",
      "type": "function"
    },
    {
      "constant": true,
      "inputs": [
        {
          "internalType": "uint256",
          "name": "",
          "type": "uint256"
        }
      ],
      "name": "GetBloodGroupingRhList",
      "outputs": [
        {
          "internalType": "uint256",
          "name": "tst_bloodG_id",
          "type": "uint256"
        },
        {
          "internalType": "uint256",
          "name": "prescription_id",
          "type": "uint256"
        },
        {
          "internalType": "string",
          "name": "bloodGroup",
          "type": "string"
        },
        {
          "internalType": "string",
          "name": "rhesusD",
          "type": "string"
        },
        {
          "internalType": "uint256",
          "name": "appointment_id",
          "type": "uint256"
        },
        {
          "internalType": "uint256",
          "name": "date",
          "type": "uint256"
        }
      ],
      "payable": false,
      "stateMutability": "view",
      "type": "function"
    },
    {
      "constant": true,
      "inputs": [
        {
          "internalType": "uint256",
          "name": "",
          "type": "uint256"
        }
      ],
      "name": "GetBloodGroupingRh_Id",
      "outputs": [
        {
          "internalType": "uint256",
          "name": "tst_bloodG_id",
          "type": "uint256"
        },
        {
          "internalType": "uint256",
          "name": "prescription_id",
          "type": "uint256"
        },
        {
          "internalType": "string",
          "name": "bloodGroup",
          "type": "string"
        },
        {
          "internalType": "string",
          "name": "rhesusD",
          "type": "string"
        },
        {
          "internalType": "uint256",
          "name": "appointment_id",
          "type": "uint256"
        },
        {
          "internalType": "uint256",
          "name": "date",
          "type": "uint256"
        }
      ],
      "payable": false,
      "stateMutability": "view",
      "type": "function"
    },
    {
      "constant": true,
      "inputs": [
        {
          "internalType": "uint256",
          "name": "",
          "type": "uint256"
        }
      ],
      "name": "GetImageCentric_Id",
      "outputs": [
        {
          "internalType": "uint256",
          "name": "id",
          "type": "uint256"
        },
        {
          "internalType": "uint256",
          "name": "appointment_id",
          "type": "uint256"
        },
        {
          "internalType": "string",
          "name": "description",
          "type": "string"
        },
        {
          "internalType": "string",
          "name": "metadatahash",
          "type": "string"
        },
        {
          "internalType": "uint256",
          "name": "date",
          "type": "uint256"
        }
      ],
      "payable": false,
      "stateMutability": "view",
      "type": "function"
    },
    {
      "constant": true,
      "inputs": [
        {
          "internalType": "uint256",
          "name": "",
          "type": "uint256"
        }
      ],
      "name": "GetLipidTestList",
      "outputs": [
        {
          "internalType": "uint256",
          "name": "tst_li_id",
          "type": "uint256"
        },
        {
          "internalType": "uint256",
          "name": "prescription_id",
          "type": "uint256"
        },
        {
          "internalType": "string",
          "name": "cholestrolHDL",
          "type": "string"
        },
        {
          "internalType": "string",
          "name": "cholestrolLDL",
          "type": "string"
        },
        {
          "internalType": "string",
          "name": "triglycerides",
          "type": "string"
        },
        {
          "internalType": "string",
          "name": "totalCholestrolLDLHDLratio",
          "type": "string"
        },
        {
          "internalType": "uint256",
          "name": "appointment_id",
          "type": "uint256"
        },
        {
          "internalType": "uint256",
          "name": "date",
          "type": "uint256"
        }
      ],
      "payable": false,
      "stateMutability": "view",
      "type": "function"
    },
    {
      "constant": true,
      "inputs": [
        {
          "internalType": "uint256",
          "name": "",
          "type": "uint256"
        }
      ],
      "name": "GetLipidTest_Id",
      "outputs": [
        {
          "internalType": "uint256",
          "name": "tst_li_id",
          "type": "uint256"
        },
        {
          "internalType": "uint256",
          "name": "prescription_id",
          "type": "uint256"
        },
        {
          "internalType": "string",
          "name": "cholestrolHDL",
          "type": "string"
        },
        {
          "internalType": "string",
          "name": "cholestrolLDL",
          "type": "string"
        },
        {
          "internalType": "string",
          "name": "triglycerides",
          "type": "string"
        },
        {
          "internalType": "string",
          "name": "totalCholestrolLDLHDLratio",
          "type": "string"
        },
        {
          "internalType": "uint256",
          "name": "appointment_id",
          "type": "uint256"
        },
        {
          "internalType": "uint256",
          "name": "date",
          "type": "uint256"
        }
      ],
      "payable": false,
      "stateMutability": "view",
      "type": "function"
    },
    {
      "constant": true,
      "inputs": [
        {
          "internalType": "string",
          "name": "",
          "type": "string"
        },
        {
          "internalType": "uint256",
          "name": "",
          "type": "uint256"
        }
      ],
      "name": "PatientBloodGroupingRhRecord",
      "outputs": [
        {
          "internalType": "uint256",
          "name": "tst_bloodG_id",
          "type": "uint256"
        },
        {
          "internalType": "uint256",
          "name": "prescription_id",
          "type": "uint256"
        },
        {
          "internalType": "string",
          "name": "bloodGroup",
          "type": "string"
        },
        {
          "internalType": "string",
          "name": "rhesusD",
          "type": "string"
        },
        {
          "internalType": "uint256",
          "name": "appointment_id",
          "type": "uint256"
        },
        {
          "internalType": "uint256",
          "name": "date",
          "type": "uint256"
        }
      ],
      "payable": false,
      "stateMutability": "view",
      "type": "function"
    },
    {
      "constant": true,
      "inputs": [
        {
          "internalType": "string",
          "name": "",
          "type": "string"
        },
        {
          "internalType": "uint256",
          "name": "",
          "type": "uint256"
        }
      ],
      "name": "PatientLapidTestRecord",
      "outputs": [
        {
          "internalType": "uint256",
          "name": "tst_li_id",
          "type": "uint256"
        },
        {
          "internalType": "uint256",
          "name": "prescription_id",
          "type": "uint256"
        },
        {
          "internalType": "string",
          "name": "cholestrolHDL",
          "type": "string"
        },
        {
          "internalType": "string",
          "name": "cholestrolLDL",
          "type": "string"
        },
        {
          "internalType": "string",
          "name": "triglycerides",
          "type": "string"
        },
        {
          "internalType": "string",
          "name": "totalCholestrolLDLHDLratio",
          "type": "string"
        },
        {
          "internalType": "uint256",
          "name": "appointment_id",
          "type": "uint256"
        },
        {
          "internalType": "uint256",
          "name": "date",
          "type": "uint256"
        }
      ],
      "payable": false,
      "stateMutability": "view",
      "type": "function"
    },
    {
      "constant": true,
      "inputs": [
        {
          "internalType": "string",
          "name": "",
          "type": "string"
        },
        {
          "internalType": "uint256",
          "name": "",
          "type": "uint256"
        }
      ],
      "name": "PatientRecordAccess",
      "outputs": [
        {
          "internalType": "uint256",
          "name": "id",
          "type": "uint256"
        },
        {
          "internalType": "uint256",
          "name": "appointment_id",
          "type": "uint256"
        },
        {
          "internalType": "string",
          "name": "description",
          "type": "string"
        },
        {
          "internalType": "string",
          "name": "metadatahash",
          "type": "string"
        },
        {
          "internalType": "uint256",
          "name": "date",
          "type": "uint256"
        }
      ],
      "payable": false,
      "stateMutability": "view",
      "type": "function"
    },
    {
      "constant": true,
      "inputs": [],
      "name": "bloodtestCount",
      "outputs": [
        {
          "internalType": "uint256",
          "name": "",
          "type": "uint256"
        }
      ],
      "payable": false,
      "stateMutability": "view",
      "type": "function"
    },
    {
      "constant": true,
      "inputs": [],
      "name": "imgCount",
      "outputs": [
        {
          "internalType": "uint256",
          "name": "",
          "type": "uint256"
        }
      ],
      "payable": false,
      "stateMutability": "view",
      "type": "function"
    },
    {
      "constant": true,
      "inputs": [],
      "name": "lipidtestCount",
      "outputs": [
        {
          "internalType": "uint256",
          "name": "",
          "type": "uint256"
        }
      ],
      "payable": false,
      "stateMutability": "view",
      "type": "function"
    },
    {
      "constant": true,
      "inputs": [],
      "name": "testCount",
      "outputs": [
        {
          "internalType": "uint256",
          "name": "",
          "type": "uint256"
        }
      ],
      "payable": false,
      "stateMutability": "view",
      "type": "function"
    },
    {
      "constant": true,
      "inputs": [],
      "name": "title",
      "outputs": [
        {
          "internalType": "string",
          "name": "",
          "type": "string"
        }
      ],
      "payable": false,
      "stateMutability": "view",
      "type": "function"
    },
    {
      "constant": false,
      "inputs": [
        {
          "internalType": "string",
          "name": "_patientUserId",
          "type": "string"
        },
        {
          "internalType": "uint256",
          "name": "_prescription_id",
          "type": "uint256"
        },
        {
          "internalType": "string",
          "name": "_cholestrolHDL",
          "type": "string"
        },
        {
          "internalType": "string",
          "name": "_cholestrolLDL",
          "type": "string"
        },
        {
          "internalType": "string",
          "name": "_triglycerides",
          "type": "string"
        },
        {
          "internalType": "string",
          "name": "_totalCholestrolLDLHDLratio",
          "type": "string"
        },
        {
          "internalType": "uint256",
          "name": "_appointment_id",
          "type": "uint256"
        }
      ],
      "name": "AddLipidTest",
      "outputs": [],
      "payable": false,
      "stateMutability": "nonpayable",
      "type": "function"
    },
    {
      "constant": false,
      "inputs": [
        {
          "internalType": "string",
          "name": "_patientUserId",
          "type": "string"
        },
        {
          "internalType": "uint256",
          "name": "_prescription_id",
          "type": "uint256"
        },
        {
          "internalType": "string",
          "name": "_bloodGroup",
          "type": "string"
        },
        {
          "internalType": "string",
          "name": "_rhesusD",
          "type": "string"
        },
        {
          "internalType": "uint256",
          "name": "_appointment_id",
          "type": "uint256"
        }
      ],
      "name": "AddBloodGroupingRh",
      "outputs": [],
      "payable": false,
      "stateMutability": "nonpayable",
      "type": "function"
    },
    {
      "constant": false,
      "inputs": [
        {
          "internalType": "string",
          "name": "_patientUserId",
          "type": "string"
        },
        {
          "internalType": "uint256",
          "name": "_appointment_id",
          "type": "uint256"
        },
        {
          "internalType": "string",
          "name": "_description",
          "type": "string"
        },
        {
          "internalType": "string",
          "name": "_filehash",
          "type": "string"
        }
      ],
      "name": "AddImageCentric",
      "outputs": [],
      "payable": false,
      "stateMutability": "nonpayable",
      "type": "function"
    }
  ],
  "bytecode": "0x608060405260006002556000600355600060045560006005553480156200002557600080fd5b506040518060400160405280601f81526020017f5468697320484d53206973206261736564206f6e20426c6f636b636861696e008152506000908051906020019062000073929190620000bb565b5033600160006101000a81548173ffffffffffffffffffffffffffffffffffffffff021916908373ffffffffffffffffffffffffffffffffffffffff1602179055506200016a565b828054600181600116156101000203166002900490600052602060002090601f016020900481019282601f10620000fe57805160ff19168380011785556200012f565b828001600101855582156200012f579182015b828111156200012e57825182559160200191906001019062000111565b5b5090506200013e919062000142565b5090565b6200016791905b808211156200016357600081600090555060010162000149565b5090565b90565b61320e806200017a6000396000f3fe608060405234801561001057600080fd5b506004361061010b5760003560e01c806379e7b273116100a2578063aaacd73511610071578063aaacd735146111ef578063b2fd47f8146113b5578063ed99bccc146114e4578063ef679f6714611502578063f39929c5146115205761010b565b806379e7b27314610aa2578063845e8b6f14610c9f5780639590d4b914610ea6578063974ae2de14610ec45761010b565b80633ac7093b116100de5780633ac7093b1461053e5780634714f3101461066d5780634a79d50c1461082c5780636a5514cb146108af5761010b565b8063292f8eb714610110578063299725c31461012e578063336cc829146103cc57806336464c7714610416575b600080fd5b610118611727565b6040518082815260200191505060405180910390f35b6101f16004803603604081101561014457600080fd5b810190808035906020019064010000000081111561016157600080fd5b82018360208201111561017357600080fd5b8035906020019184600183028401116401000000008311171561019557600080fd5b91908080601f016020809104026020016040519081016040528093929190818152602001838380828437600081840152601f19601f8201169050808301925050505050505091929192908035906020019092919050505061172d565b604051808981526020018881526020018060200180602001806020018060200187815260200186815260200185810385528b818151815260200191508051906020019080838360005b8381101561025557808201518184015260208101905061023a565b50505050905090810190601f1680156102825780820380516001836020036101000a031916815260200191505b5085810384528a818151815260200191508051906020019080838360005b838110156102bb5780820151818401526020810190506102a0565b50505050905090810190601f1680156102e85780820380516001836020036101000a031916815260200191505b50858103835289818151815260200191508051906020019080838360005b83811015610321578082015181840152602081019050610306565b50505050905090810190601f16801561034e5780820380516001836020036101000a031916815260200191505b50858103825288818151815260200191508051906020019080838360005b8381101561038757808201518184015260208101905061036c565b50505050905090810190601f1680156103b45780820380516001836020036101000a031916815260200191505b509c5050505050505050505050505060405180910390f35b6103d46119f8565b604051808273ffffffffffffffffffffffffffffffffffffffff1673ffffffffffffffffffffffffffffffffffffffff16815260200191505060405180910390f35b6104426004803603602081101561042c57600080fd5b8101908080359060200190929190505050611a1e565b604051808681526020018581526020018060200180602001848152602001838103835286818151815260200191508051906020019080838360005b8381101561049857808201518184015260208101905061047d565b50505050905090810190601f1680156104c55780820380516001836020036101000a031916815260200191505b50838103825285818151815260200191508051906020019080838360005b838110156104fe5780820151818401526020810190506104e3565b50505050905090810190601f16801561052b5780820380516001836020036101000a031916815260200191505b5097505050505050505060405180910390f35b61056a6004803603602081101561055457600080fd5b8101908080359060200190929190505050611b84565b604051808781526020018681526020018060200180602001858152602001848152602001838103835287818151815260200191508051906020019080838360005b838110156105c65780820151818401526020810190506105ab565b50505050905090810190601f1680156105f35780820380516001836020036101000a031916815260200191505b50838103825286818151815260200191508051906020019080838360005b8381101561062c578082015181840152602081019050610611565b50505050905090810190601f1680156106595780820380516001836020036101000a031916815260200191505b509850505050505050505060405180910390f35b6107306004803603604081101561068357600080fd5b81019080803590602001906401000000008111156106a057600080fd5b8201836020820111156106b257600080fd5b803590602001918460018302840111640100000000831117156106d457600080fd5b91908080601f016020809104026020016040519081016040528093929190818152602001838380828437600081840152601f19601f82011690508083019250505050505050919291929080359060200190929190505050611cf0565b604051808681526020018581526020018060200180602001848152602001838103835286818151815260200191508051906020019080838360005b8381101561078657808201518184015260208101905061076b565b50505050905090810190601f1680156107b35780820380516001836020036101000a031916815260200191505b50838103825285818151815260200191508051906020019080838360005b838110156107ec5780820151818401526020810190506107d1565b50505050905090810190601f1680156108195780820380516001836020036101000a031916815260200191505b5097505050505050505060405180910390f35b610834611e79565b6040518080602001828103825283818151815260200191508051906020019080838360005b83811015610874578082015181840152602081019050610859565b50505050905090810190601f1680156108a15780820380516001836020036101000a031916815260200191505b509250505060405180910390f35b610aa0600480360360808110156108c557600080fd5b81019080803590602001906401000000008111156108e257600080fd5b8201836020820111156108f457600080fd5b8035906020019184600183028401116401000000008311171561091657600080fd5b91908080601f016020809104026020016040519081016040528093929190818152602001838380828437600081840152601f19601f820116905080830192505050505050509192919290803590602001909291908035906020019064010000000081111561098357600080fd5b82018360208201111561099557600080fd5b803590602001918460018302840111640100000000831117156109b757600080fd5b91908080601f016020809104026020016040519081016040528093929190818152602001838380828437600081840152601f19601f82011690508083019250505050505050919291929080359060200190640100000000811115610a1a57600080fd5b820183602082011115610a2c57600080fd5b80359060200191846001830284011164010000000083111715610a4e57600080fd5b91908080601f016020809104026020016040519081016040528093929190818152602001838380828437600081840152601f19601f820116905080830192505050505050509192919290505050611f17565b005b610c9d600480360360a0811015610ab857600080fd5b8101908080359060200190640100000000811115610ad557600080fd5b820183602082011115610ae757600080fd5b80359060200191846001830284011164010000000083111715610b0957600080fd5b91908080601f016020809104026020016040519081016040528093929190818152602001838380828437600081840152601f19601f8201169050808301925050505050505091929192908035906020019092919080359060200190640100000000811115610b7657600080fd5b820183602082011115610b8857600080fd5b80359060200191846001830284011164010000000083111715610baa57600080fd5b91908080601f016020809104026020016040519081016040528093929190818152602001838380828437600081840152601f19601f82011690508083019250505050505050919291929080359060200190640100000000811115610c0d57600080fd5b820183602082011115610c1f57600080fd5b80359060200191846001830284011164010000000083111715610c4157600080fd5b91908080601f016020809104026020016040519081016040528093929190818152602001838380828437600081840152601f19601f820116905080830192505050505050509192919290803590602001909291905050506121e7565b005b610ccb60048036036020811015610cb557600080fd5b8101908080359060200190929190505050612589565b604051808981526020018881526020018060200180602001806020018060200187815260200186815260200185810385528b818151815260200191508051906020019080838360005b83811015610d2f578082015181840152602081019050610d14565b50505050905090810190601f168015610d5c5780820380516001836020036101000a031916815260200191505b5085810384528a818151815260200191508051906020019080838360005b83811015610d95578082015181840152602081019050610d7a565b50505050905090810190601f168015610dc25780820380516001836020036101000a031916815260200191505b50858103835289818151815260200191508051906020019080838360005b83811015610dfb578082015181840152602081019050610de0565b50505050905090810190601f168015610e285780820380516001836020036101000a031916815260200191505b50858103825288818151815260200191508051906020019080838360005b83811015610e61578082015181840152602081019050610e46565b50505050905090810190601f168015610e8e5780820380516001836020036101000a031916815260200191505b509c5050505050505050505050505060405180910390f35b610eae612831565b6040518082815260200191505060405180910390f35b6111ed600480360360e0811015610eda57600080fd5b8101908080359060200190640100000000811115610ef757600080fd5b820183602082011115610f0957600080fd5b80359060200191846001830284011164010000000083111715610f2b57600080fd5b91908080601f016020809104026020016040519081016040528093929190818152602001838380828437600081840152601f19601f8201169050808301925050505050505091929192908035906020019092919080359060200190640100000000811115610f9857600080fd5b820183602082011115610faa57600080fd5b80359060200191846001830284011164010000000083111715610fcc57600080fd5b91908080601f016020809104026020016040519081016040528093929190818152602001838380828437600081840152601f19601f8201169050808301925050505050505091929192908035906020019064010000000081111561102f57600080fd5b82018360208201111561104157600080fd5b8035906020019184600183028401116401000000008311171561106357600080fd5b91908080601f016020809104026020016040519081016040528093929190818152602001838380828437600081840152601f19601f820116905080830192505050505050509192919290803590602001906401000000008111156110c657600080fd5b8201836020820111156110d857600080fd5b803590602001918460018302840111640100000000831117156110fa57600080fd5b91908080601f016020809104026020016040519081016040528093929190818152602001838380828437600081840152601f19601f8201169050808301925050505050505091929192908035906020019064010000000081111561115d57600080fd5b82018360208201111561116f57600080fd5b8035906020019184600183028401116401000000008311171561119157600080fd5b91908080601f016020809104026020016040519081016040528093929190818152602001838380828437600081840152601f19601f82011690508083019250505050505050919291929080359060200190929190505050612837565b005b6112b26004803603604081101561120557600080fd5b810190808035906020019064010000000081111561122257600080fd5b82018360208201111561123457600080fd5b8035906020019184600183028401116401000000008311171561125657600080fd5b91908080601f016020809104026020016040519081016040528093929190818152602001838380828437600081840152601f19601f82011690508083019250505050505050919291929080359060200190929190505050612b85565b604051808781526020018681526020018060200180602001858152602001848152602001838103835287818151815260200191508051906020019080838360005b8381101561130e5780820151818401526020810190506112f3565b50505050905090810190601f16801561133b5780820380516001836020036101000a031916815260200191505b50838103825286818151815260200191508051906020019080838360005b83811015611374578082015181840152602081019050611359565b50505050905090810190601f1680156113a15780820380516001836020036101000a031916815260200191505b509850505050505050505060405180910390f35b6113e1600480360360208110156113cb57600080fd5b8101908080359060200190929190505050612d14565b604051808781526020018681526020018060200180602001858152602001848152602001838103835287818151815260200191508051906020019080838360005b8381101561143d578082015181840152602081019050611422565b50505050905090810190601f16801561146a5780820380516001836020036101000a031916815260200191505b50838103825286818151815260200191508051906020019080838360005b838110156114a3578082015181840152602081019050611488565b50505050905090810190601f1680156114d05780820380516001836020036101000a031916815260200191505b509850505050505050505060405180910390f35b6114ec612e80565b6040518082815260200191505060405180910390f35b61150a612e86565b6040518082815260200191505060405180910390f35b61154c6004803603602081101561153657600080fd5b8101908080359060200190929190505050612e8c565b604051808981526020018881526020018060200180602001806020018060200187815260200186815260200185810385528b818151815260200191508051906020019080838360005b838110156115b0578082015181840152602081019050611595565b50505050905090810190601f1680156115dd5780820380516001836020036101000a031916815260200191505b5085810384528a818151815260200191508051906020019080838360005b838110156116165780820151818401526020810190506115fb565b50505050905090810190601f1680156116435780820380516001836020036101000a031916815260200191505b50858103835289818151815260200191508051906020019080838360005b8381101561167c578082015181840152602081019050611661565b50505050905090810190601f1680156116a95780820380516001836020036101000a031916815260200191505b50858103825288818151815260200191508051906020019080838360005b838110156116e25780820151818401526020810190506116c7565b50505050905090810190601f16801561170f5780820380516001836020036101000a031916815260200191505b509c5050505050505050505050505060405180910390f35b60045481565b60088280516020810182018051848252602083016020850120818352809550505050505060205280600052604060002060009150915050806000015490806001015490806002018054600181600116156101000203166002900480601f0160208091040260200160405190810160405280929190818152602001828054600181600116156101000203166002900480156118085780601f106117dd57610100808354040283529160200191611808565b820191906000526020600020905b8154815290600101906020018083116117eb57829003601f168201915b505050505090806003018054600181600116156101000203166002900480601f0160208091040260200160405190810160405280929190818152602001828054600181600116156101000203166002900480156118a65780601f1061187b576101008083540402835291602001916118a6565b820191906000526020600020905b81548152906001019060200180831161188957829003601f168201915b505050505090806004018054600181600116156101000203166002900480601f0160208091040260200160405190810160405280929190818152602001828054600181600116156101000203166002900480156119445780601f1061191957610100808354040283529160200191611944565b820191906000526020600020905b81548152906001019060200180831161192757829003601f168201915b505050505090806005018054600181600116156101000203166002900480601f0160208091040260200160405190810160405280929190818152602001828054600181600116156101000203166002900480156119e25780601f106119b7576101008083540402835291602001916119e2565b820191906000526020600020905b8154815290600101906020018083116119c557829003601f168201915b5050505050908060060154908060070154905088565b600160009054906101000a900473ffffffffffffffffffffffffffffffffffffffff1681565b600c602052806000526040600020600091509050806000015490806001015490806002018054600181600116156101000203166002900480601f016020809104026020016040519081016040528092919081815260200182805460018160011615610100020316600290048015611ad65780601f10611aab57610100808354040283529160200191611ad6565b820191906000526020600020905b815481529060010190602001808311611ab957829003601f168201915b505050505090806003018054600181600116156101000203166002900480601f016020809104026020016040519081016040528092919081815260200182805460018160011615610100020316600290048015611b745780601f10611b4957610100808354040283529160200191611b74565b820191906000526020600020905b815481529060010190602001808311611b5757829003601f168201915b5050505050908060040154905085565b6009602052806000526040600020600091509050806000015490806001015490806002018054600181600116156101000203166002900480601f016020809104026020016040519081016040528092919081815260200182805460018160011615610100020316600290048015611c3c5780601f10611c1157610100808354040283529160200191611c3c565b820191906000526020600020905b815481529060010190602001808311611c1f57829003601f168201915b505050505090806003018054600181600116156101000203166002900480601f016020809104026020016040519081016040528092919081815260200182805460018160011615610100020316600290048015611cda5780601f10611caf57610100808354040283529160200191611cda565b820191906000526020600020905b815481529060010190602001808311611cbd57829003601f168201915b5050505050908060040154908060050154905086565b600d8280516020810182018051848252602083016020850120818352809550505050505060205280600052604060002060009150915050806000015490806001015490806002018054600181600116156101000203166002900480601f016020809104026020016040519081016040528092919081815260200182805460018160011615610100020316600290048015611dcb5780601f10611da057610100808354040283529160200191611dcb565b820191906000526020600020905b815481529060010190602001808311611dae57829003601f168201915b505050505090806003018054600181600116156101000203166002900480601f016020809104026020016040519081016040528092919081815260200182805460018160011615610100020316600290048015611e695780601f10611e3e57610100808354040283529160200191611e69565b820191906000526020600020905b815481529060010190602001808311611e4c57829003601f168201915b5050505050908060040154905085565b60008054600181600116156101000203166002900480601f016020809104026020016040519081016040528092919081815260200182805460018160011615610100020316600290048015611f0f5780601f10611ee457610100808354040283529160200191611f0f565b820191906000526020600020905b815481529060010190602001808311611ef257829003601f168201915b505050505081565b6005600081548092919060010191905055506040518060a00160405280600554815260200184815260200183815260200182815260200142815250600c600085815260200190815260200160002060008201518160000155602082015181600101556040820151816002019080519060200190611f95929190613134565b506060820151816003019080519060200190611fb2929190613134565b50608082015181600401559050506040518060a00160405280600554815260200184815260200183815260200182815260200142815250600d856040518082805190602001908083835b6020831061201f5780518252602082019150602081019050602083039250611ffc565b6001836020036101000a0380198251168184511680821785525050505050509050019150509081526020016040518091039020600085815260200190815260200160002060008201518160000155602082015181600101556040820151816002019080519060200190612093929190613134565b5060608201518160030190805190602001906120b0929190613134565b50608082015181600401559050507ff7261a3d917696e79fad332bcde8436d643fe7b13cb319e1fd80c69ed12b5f5b60055484848442604051808681526020018581526020018060200180602001848152602001838103835286818151815260200191508051906020019080838360005b8381101561213c578082015181840152602081019050612121565b50505050905090810190601f1680156121695780820380516001836020036101000a031916815260200191505b50838103825285818151815260200191508051906020019080838360005b838110156121a2578082015181840152602081019050612187565b50505050905090810190601f1680156121cf5780820380516001836020036101000a031916815260200191505b5097505050505050505060405180910390a150505050565b6004600081548092919060010191905055506040518060c001604052806004548152602001858152602001848152602001838152602001828152602001428152506009600060045481526020019081526020016000206000820151816000015560208201518160010155604082015181600201908051906020019061226d929190613134565b50606082015181600301908051906020019061228a929190613134565b506080820151816004015560a082015181600501559050506040518060c00160405280600454815260200185815260200184815260200183815260200182815260200142815250600a600083815260200190815260200160002060008201518160000155602082015181600101556040820151816002019080519060200190612314929190613134565b506060820151816003019080519060200190612331929190613134565b506080820151816004015560a082015181600501559050506040518060c00160405280600454815260200185815260200184815260200183815260200182815260200142815250600b866040518082805190602001908083835b602083106123ae578051825260208201915060208101905060208303925061238b565b6001836020036101000a0380198251168184511680821785525050505050509050019150509081526020016040518091039020600083815260200190815260200160002060008201518160000155602082015181600101556040820151816002019080519060200190612422929190613134565b50606082015181600301908051906020019061243f929190613134565b506080820151816004015560a082015181600501559050507f763e30af0cfa67aa8e8fd0e36f34fd1f8d309dff177a5a86b3e643723bf8e47c6002548585858542604051808781526020018681526020018060200180602001858152602001848152602001838103835287818151815260200191508051906020019080838360005b838110156124dc5780820151818401526020810190506124c1565b50505050905090810190601f1680156125095780820380516001836020036101000a031916815260200191505b50838103825286818151815260200191508051906020019080838360005b83811015612542578082015181840152602081019050612527565b50505050905090810190601f16801561256f5780820380516001836020036101000a031916815260200191505b509850505050505050505060405180910390a15050505050565b6007602052806000526040600020600091509050806000015490806001015490806002018054600181600116156101000203166002900480601f0160208091040260200160405190810160405280929190818152602001828054600181600116156101000203166002900480156126415780601f1061261657610100808354040283529160200191612641565b820191906000526020600020905b81548152906001019060200180831161262457829003601f168201915b505050505090806003018054600181600116156101000203166002900480601f0160208091040260200160405190810160405280929190818152602001828054600181600116156101000203166002900480156126df5780601f106126b4576101008083540402835291602001916126df565b820191906000526020600020905b8154815290600101906020018083116126c257829003601f168201915b505050505090806004018054600181600116156101000203166002900480601f01602080910402602001604051908101604052809291908181526020018280546001816001161561010002031660029004801561277d5780601f106127525761010080835404028352916020019161277d565b820191906000526020600020905b81548152906001019060200180831161276057829003601f168201915b505050505090806005018054600181600116156101000203166002900480601f01602080910402602001604051908101604052809291908181526020018280546001816001161561010002031660029004801561281b5780601f106127f05761010080835404028352916020019161281b565b820191906000526020600020905b8154815290600101906020018083116127fe57829003601f168201915b5050505050908060060154908060070154905088565b60025481565b600360008154809291906001019190505550604051806101000160405280600354815260200187815260200186815260200185815260200184815260200183815260200182815260200142815250600660006003548152602001908152602001600020600082015181600001556020820151816001015560408201518160020190805190602001906128ca929190613134565b5060608201518160030190805190602001906128e7929190613134565b506080820151816004019080519060200190612904929190613134565b5060a0820151816005019080519060200190612921929190613134565b5060c0820151816006015560e0820151816007015590505060405180610100016040528060035481526020018781526020018681526020018581526020018481526020018381526020018281526020014281525060076000838152602001908152602001600020600082015181600001556020820151816001015560408201518160020190805190602001906129b8929190613134565b5060608201518160030190805190602001906129d5929190613134565b5060808201518160040190805190602001906129f2929190613134565b5060a0820151816005019080519060200190612a0f929190613134565b5060c0820151816006015560e082015181600701559050506040518061010001604052806003548152602001878152602001868152602001858152602001848152602001838152602001828152602001428152506008886040518082805190602001908083835b60208310612a995780518252602082019150602081019050602083039250612a76565b6001836020036101000a0380198251168184511680821785525050505050509050019150509081526020016040518091039020600083815260200190815260200160002060008201518160000155602082015181600101556040820151816002019080519060200190612b0d929190613134565b506060820151816003019080519060200190612b2a929190613134565b506080820151816004019080519060200190612b47929190613134565b5060a0820151816005019080519060200190612b64929190613134565b5060c0820151816006015560e0820151816007015590505050505050505050565b600b8280516020810182018051848252602083016020850120818352809550505050505060205280600052604060002060009150915050806000015490806001015490806002018054600181600116156101000203166002900480601f016020809104026020016040519081016040528092919081815260200182805460018160011615610100020316600290048015612c605780601f10612c3557610100808354040283529160200191612c60565b820191906000526020600020905b815481529060010190602001808311612c4357829003601f168201915b505050505090806003018054600181600116156101000203166002900480601f016020809104026020016040519081016040528092919081815260200182805460018160011615610100020316600290048015612cfe5780601f10612cd357610100808354040283529160200191612cfe565b820191906000526020600020905b815481529060010190602001808311612ce157829003601f168201915b5050505050908060040154908060050154905086565b600a602052806000526040600020600091509050806000015490806001015490806002018054600181600116156101000203166002900480601f016020809104026020016040519081016040528092919081815260200182805460018160011615610100020316600290048015612dcc5780601f10612da157610100808354040283529160200191612dcc565b820191906000526020600020905b815481529060010190602001808311612daf57829003601f168201915b505050505090806003018054600181600116156101000203166002900480601f016020809104026020016040519081016040528092919081815260200182805460018160011615610100020316600290048015612e6a5780601f10612e3f57610100808354040283529160200191612e6a565b820191906000526020600020905b815481529060010190602001808311612e4d57829003601f168201915b5050505050908060040154908060050154905086565b60055481565b60035481565b6006602052806000526040600020600091509050806000015490806001015490806002018054600181600116156101000203166002900480601f016020809104026020016040519081016040528092919081815260200182805460018160011615610100020316600290048015612f445780601f10612f1957610100808354040283529160200191612f44565b820191906000526020600020905b815481529060010190602001808311612f2757829003601f168201915b505050505090806003018054600181600116156101000203166002900480601f016020809104026020016040519081016040528092919081815260200182805460018160011615610100020316600290048015612fe25780601f10612fb757610100808354040283529160200191612fe2565b820191906000526020600020905b815481529060010190602001808311612fc557829003601f168201915b505050505090806004018054600181600116156101000203166002900480601f0160208091040260200160405190810160405280929190818152602001828054600181600116156101000203166002900480156130805780601f1061305557610100808354040283529160200191613080565b820191906000526020600020905b81548152906001019060200180831161306357829003601f168201915b505050505090806005018054600181600116156101000203166002900480601f01602080910402602001604051908101604052809291908181526020018280546001816001161561010002031660029004801561311e5780601f106130f35761010080835404028352916020019161311e565b820191906000526020600020905b81548152906001019060200180831161310157829003601f168201915b5050505050908060060154908060070154905088565b828054600181600116156101000203166002900490600052602060002090601f016020900481019282601f1061317557805160ff19168380011785556131a3565b828001600101855582156131a3579182015b828111156131a2578251825591602001919060010190613187565b5b5090506131b091906131b4565b5090565b6131d691905b808211156131d25760008160009055506001016131ba565b5090565b9056fea265627a7a7231582064e916d14f3e69c24fcc77a25c36c25549f5146e0e31fa88e8461e3591bc34e264736f6c63430005100032",
  "source": "pragma solidity >=0.4.21 <0.8.3;\r\n \r\n\r\ncontract HMSTests {\r\n\r\n    string public title;\r\n    address public CreatedTestBy;\r\n    uint public testCount = 0; \r\n    uint public lipidtestCount = 0; \r\n    uint public bloodtestCount = 0; \r\n    uint public imgCount = 0; \r\n    //mapping(address => LipidTest) public GetLipidTest_Adrs;\r\n    //-------------Lipid Test\r\n    mapping(uint => LipidTest) public GetLipidTestList; //by appointment Id;\r\n    mapping(uint => LipidTest) public GetLipidTest_Id; //by appointment Id;\r\n    mapping(string => mapping(uint => LipidTest)) public PatientLapidTestRecord;\r\n    //-------------Blood Group Test\r\n    mapping(uint => BloodGroupingRh) public GetBloodGroupingRhList; //by appointment Id;\r\n    mapping(uint => BloodGroupingRh) public GetBloodGroupingRh_Id; //by appointment Id;\r\n    mapping(string => mapping(uint => BloodGroupingRh)) public PatientBloodGroupingRhRecord;\r\n        //-------------Image Centric Test \r\n    mapping(uint => ImageCentric) public GetImageCentric_Id; //by appointment Id;\r\n    mapping(string => mapping(uint => ImageCentric)) public PatientRecordAccess;\r\n    \r\n    struct LipidTest{\r\n       uint tst_li_id;\r\n       uint prescription_id;\r\n       string cholestrolHDL;\r\n       string cholestrolLDL;\r\n       string triglycerides;\r\n       string totalCholestrolLDLHDLratio;\r\n       uint appointment_id;\r\n       uint date; \r\n    }\r\n    \r\n\r\n    struct BloodGroupingRh{\r\n       uint tst_bloodG_id;\r\n       uint prescription_id;\r\n       string bloodGroup;\r\n       string rhesusD; \r\n       uint appointment_id;\r\n       uint date; \r\n    }\r\n\r\n\r\n    struct ImageCentric{\r\n       uint id; \r\n       uint appointment_id;\r\n       string description;\r\n       string metadatahash;\r\n       uint date; \r\n    }\r\n\r\n     event LipidTestCreated(\r\n       uint tst_li_id,\r\n       uint prescription_id,\r\n       string cholestrolHDL,\r\n       string cholestrolLDL,\r\n       string triglycerides,\r\n       string totalCholestrolLDLHDLratio,\r\n       uint appointment_id,\r\n       uint date\r\n    );  \r\n    event BloodGroupingRhCreated(\r\n       uint tst_bloodG_id,\r\n       uint prescription_id,\r\n       string bloodGroup,\r\n       string rhesusD,\r\n       uint appointment_id,\r\n       uint date\r\n    );\r\n    event ImageCentricCreated(\r\n       uint id,\r\n       uint appointment_id,\r\n       string description,\r\n       string metadatahash,\r\n       uint date\r\n    );\r\n\r\n    constructor() public{\r\n        title = \"This HMS is based on Blockchain\";\r\n        CreatedTestBy = msg.sender;\r\n    }\r\n    \r\n   // function setPatient(address _address) setPatientId{\r\n        \r\n    //}\r\n    \r\n    function AddLipidTest(string memory _patientUserId, uint _prescription_id, string memory _cholestrolHDL, \r\n    string memory _cholestrolLDL, string memory _triglycerides, string memory _totalCholestrolLDLHDLratio, \r\n    uint _appointment_id) public{\r\n        //address patientId = address(sha256(_patientUserName));\r\n        lipidtestCount ++;\r\n        GetLipidTestList[lipidtestCount] = LipidTest(lipidtestCount, _prescription_id, _cholestrolHDL, _cholestrolLDL, _triglycerides, _totalCholestrolLDLHDLratio, _appointment_id, now);\r\n        GetLipidTest_Id[_appointment_id] = LipidTest(lipidtestCount, _prescription_id, _cholestrolHDL, _cholestrolLDL, _triglycerides, _totalCholestrolLDLHDLratio, _appointment_id, now);\r\n        PatientLapidTestRecord[_patientUserId][_appointment_id] = LipidTest(lipidtestCount, _prescription_id, _cholestrolHDL, _cholestrolLDL, _triglycerides, _totalCholestrolLDLHDLratio, _appointment_id, now);\r\n        //emit LipidTestCreated(lipidtestCount, _prescription_id, _cholestrolHDL, _cholestrolLDL, _triglycerides, _totalCholestrolLDLHDLratio, _appointment_id, now);\r\n    }\r\n    \r\n    function AddBloodGroupingRh(string memory _patientUserId, uint _prescription_id, string memory _bloodGroup, \r\n    string memory _rhesusD, uint _appointment_id) public{ \r\n        bloodtestCount ++;\r\n        GetBloodGroupingRhList[bloodtestCount] = BloodGroupingRh(bloodtestCount, _prescription_id, _bloodGroup, _rhesusD, _appointment_id, now);\r\n        GetBloodGroupingRh_Id[_appointment_id] = BloodGroupingRh(bloodtestCount, _prescription_id, _bloodGroup, _rhesusD, _appointment_id, now);\r\n        PatientBloodGroupingRhRecord[_patientUserId][_appointment_id] = BloodGroupingRh(bloodtestCount, _prescription_id, _bloodGroup, _rhesusD, _appointment_id, now);\r\n        emit BloodGroupingRhCreated(testCount, _prescription_id, _bloodGroup, _rhesusD, _appointment_id, now);\r\n    }\r\n    \r\n\r\n    function AddImageCentric(string memory _patientUserId, uint _appointment_id, \r\n    string memory _description, string memory _filehash) public{ \r\n        imgCount ++;\r\n        GetImageCentric_Id[_appointment_id] = ImageCentric(imgCount, _appointment_id, _description, _filehash, now);\r\n        PatientRecordAccess[_patientUserId][_appointment_id] = ImageCentric(imgCount, _appointment_id, _description, _filehash, now);\r\n        emit ImageCentricCreated(imgCount, _appointment_id, _description, _filehash, now);\r\n    }\r\n    \r\n    \r\n    \r\n}",
  "sourcePath": "C:/Windows/System32/PCRIM/src/contracts/HMSTests.sol",
  "compiler": {
    "name": "solc",
    "version": "0.5.16+commit.9c3226ce.Emscripten.clang"
  },
  "schemaVersion": "3.3.4",
  "updatedAt": "2021-06-12T08:04:23.613Z",
  "networkType": "ethereum",
  "devdoc": {
    "methods": {}
  },
  "userdoc": {
    "methods": {}
  }
}